{
  "fileName": "Agorum.sol",
  "contractName": "Agorum",
  "source": "pragma solidity ^0.5.1;\r\n\r\ncontract Agorum {\r\n\t// State variables\r\n\taddress private adminAccount;\r\n\tstring public name;\r\n\tstring public symbol;\r\n\tstring public standard;\r\n\tuint256 public totalSupply;\r\n\tuint256 public totalUpvotes;\r\n\tuint256 public totalPosts;\r\n\tmapping(address => uint256) public balanceOf;\r\n\tmapping(address => mapping(address => uint256)) public allowance;\r\n\tmapping(address => mapping(string => uint[])) public stakes;\r\n\r\n\tevent Transfer(\r\n\t\taddress indexed _from,\r\n\t\taddress indexed _to,\r\n\t\tuint256 _value\r\n\t);\r\n\r\n\tevent Approval(\r\n\t\taddress indexed _owner,\r\n\t\taddress indexed _spender,\r\n\t\tuint256 _value\r\n\t);\r\n\r\n\t// transfer\r\n\r\n\t// allowance\r\n\r\n\tfunction initialize() public {\r\n\t\tadminAccount = 0x90F8bf6A479f320ead074411a4B0e7944Ea8c9C1;\r\n\t\tname = \"Agorum\";\r\n\t\tsymbol = \"AGRA\";\r\n\t\tstandard = \"Agorum v1.0.0\";\r\n\t\ttotalSupply = 10000000;\r\n\r\n\t\t// allocate initial supply\r\n\t\tbalanceOf[adminAccount] = 10000000;\r\n\t}\r\n\r\n\t// Transfer\r\n\tfunction transfer(address _to, uint256 _value) public returns (bool success) {\r\n\t\t// Exception if account doesn't have enough\r\n\t\trequire(balanceOf[msg.sender] >= _value);\r\n\t\t// Transfer the balance\r\n\t\tbalanceOf[msg.sender] -= _value;\r\n\t\tbalanceOf[_to] += _value;\r\n\t\t// Transfer Event\r\n\t\temit Transfer(msg.sender, _to, _value);\r\n\t\t// Return a boolean\r\n\t\treturn true;\r\n\t}\r\n\r\n\t// Approve\r\n\tfunction approve(address _spender, uint256 _value) public returns (bool success) {\r\n\t\t// Require approver to have sufficient tokens\r\n\t\trequire(balanceOf[msg.sender] >= _value);\r\n\t\t// allowance\r\n\t\tallowance[msg.sender][_spender] = _value;\r\n\r\n\t\t// Approve event\r\n\t\temit Approval(msg.sender, _spender, _value);\r\n\r\n\t\treturn true;\r\n\t}\r\n\r\n\t// transferFrom\r\n\tfunction transferFrom(address _from, address _to, uint256 _value) public returns (bool success) {\t\r\n\t\t// Require _from has enough tokens\r\n\t\trequire(balanceOf[_from] >= _value);\r\n\r\n\t\t// Require allowance is big enough\r\n\t\trequire(allowance[_from][msg.sender] >= _value);\r\n\r\n\t\t// Change the balance\r\n\t\tbalanceOf[_from] -= _value;\r\n\t\tbalanceOf[_to] += _value;\r\n\r\n\t\t// Update the allowance\r\n\t\tallowance[_from][msg.sender] -= _value;\r\n\r\n\t\t// Transfer event\r\n\t\temit Transfer(_from, _to, _value);\r\n\r\n\t\t// return a boolean\r\n\t\treturn true;\r\n\t}\r\n\r\n\t// stake\r\n\tfunction stake(uint256 _value, string memory _postTitle, uint256 _upvotes, uint256 _comments) public returns (bool success) {\r\n\t\t// Require msg.sender has enought tokens\r\n\t\trequire(balanceOf[msg.sender] >= _value);\r\n\r\n\t\t// Define uint array of stats\r\n\t\tuint[4] memory postStats = [_value, _upvotes, _comments, now];\r\n\r\n\t\t// Change balances, stores stake with admin account\r\n\t\tbalanceOf[msg.sender] -= _value;\r\n\t\tbalanceOf[adminAccount] += _value; \r\n\t\tstakes[msg.sender][_postTitle] = postStats;\r\n\r\n\t\t// Emit transfer event\r\n\t\temit Transfer(msg.sender, adminAccount, _value);\r\n\r\n\t\t// increase totalPosts count\r\n\t\t// increase totalUpvotes count\r\n\t\ttotalPosts += 1;\r\n\t\ttotalUpvotes += 1;\r\n\r\n\t\t// return a boolean\r\n\t\treturn true;\r\n\t}\r\n\r\n\tfunction upvote(address _poster, string memory _postTitle) public returns (bool success) {\r\n\t\t// increase upvote count in stakes by 1\r\n\t\tstakes[_poster][_postTitle][1] += 1;\r\n\r\n\t\t// increase totalUpvotes count by 1\r\n\t\ttotalUpvotes += 1;\r\n\r\n\t\t// return a boolean\r\n\t\treturn true;\r\n\t}\r\n\r\n\tfunction comment(address _poster, string memory _postTitle) public returns (bool success) {\r\n\t\t// increase comment count in stakes by 1\r\n\t\tstakes[_poster][_postTitle][2] += 1;\r\n\r\n\t\t// return a boolean\r\n\t\treturn true;\r\n\t}\r\n\r\n\tfunction updateStake(address _poster, string memory _postTitle) public returns (bool success) {\r\n\t\tuint256 aveUpvotes = totalUpvotes / totalPosts;\r\n\t\t// require upvote count to be greater than average\r\n\t\trequire(stakes[_poster][_postTitle][1] >= aveUpvotes);\r\n\r\n\t\t// set stake based on upvotes and comments\r\n\t\tstakes[_poster][_postTitle][0] = 1 + (3 * uint256(stakes[_poster][_postTitle][1]) + 1 * uint256(stakes[_poster][_postTitle][2])) / 4;\r\n\r\n\t\t// return a boolean\r\n\t\treturn true;\r\n\t}\r\n\r\n\tfunction loseStake(address _poster, string memory _postTitle) public returns (bool success) {\r\n\t\tuint256 aveUpvotes = totalUpvotes / totalPosts;\r\n\r\n\t\t// require upvote count to be less than average\r\n\t\trequire(stakes[_poster][_postTitle][1] < aveUpvotes);\r\n\r\n\t\t// require one day to have past since post created\r\n\t\tuint postDate = stakes[_poster][_postTitle][3];\r\n\t\tuint currDate = now;\r\n\t\tuint diff = (currDate - postDate) / 60 / 60 / 24;\r\n\r\n\t\trequire(diff >= 1);\r\n\r\n\t\t// set stake to 0\r\n\t\tstakes[_poster][_postTitle][0] = 0;\r\n\r\n\t\t// return a boolean\r\n\t\treturn true;\r\n\t}\r\n}",
  "sourcePath": "contracts\\Agorum.sol",
  "abi": [
    {
      "anonymous": false,
      "inputs": [
        {
          "indexed": true,
          "internalType": "address",
          "name": "_owner",
          "type": "address"
        },
        {
          "indexed": true,
          "internalType": "address",
          "name": "_spender",
          "type": "address"
        },
        {
          "indexed": false,
          "internalType": "uint256",
          "name": "_value",
          "type": "uint256"
        }
      ],
      "name": "Approval",
      "type": "event"
    },
    {
      "anonymous": false,
      "inputs": [
        {
          "indexed": true,
          "internalType": "address",
          "name": "_from",
          "type": "address"
        },
        {
          "indexed": true,
          "internalType": "address",
          "name": "_to",
          "type": "address"
        },
        {
          "indexed": false,
          "internalType": "uint256",
          "name": "_value",
          "type": "uint256"
        }
      ],
      "name": "Transfer",
      "type": "event"
    },
    {
      "constant": true,
      "inputs": [
        {
          "internalType": "address",
          "name": "",
          "type": "address"
        },
        {
          "internalType": "address",
          "name": "",
          "type": "address"
        }
      ],
      "name": "allowance",
      "outputs": [
        {
          "internalType": "uint256",
          "name": "",
          "type": "uint256"
        }
      ],
      "payable": false,
      "stateMutability": "view",
      "type": "function"
    },
    {
      "constant": false,
      "inputs": [
        {
          "internalType": "address",
          "name": "_spender",
          "type": "address"
        },
        {
          "internalType": "uint256",
          "name": "_value",
          "type": "uint256"
        }
      ],
      "name": "approve",
      "outputs": [
        {
          "internalType": "bool",
          "name": "success",
          "type": "bool"
        }
      ],
      "payable": false,
      "stateMutability": "nonpayable",
      "type": "function"
    },
    {
      "constant": true,
      "inputs": [
        {
          "internalType": "address",
          "name": "",
          "type": "address"
        }
      ],
      "name": "balanceOf",
      "outputs": [
        {
          "internalType": "uint256",
          "name": "",
          "type": "uint256"
        }
      ],
      "payable": false,
      "stateMutability": "view",
      "type": "function"
    },
    {
      "constant": false,
      "inputs": [
        {
          "internalType": "address",
          "name": "_poster",
          "type": "address"
        },
        {
          "internalType": "string",
          "name": "_postTitle",
          "type": "string"
        }
      ],
      "name": "comment",
      "outputs": [
        {
          "internalType": "bool",
          "name": "success",
          "type": "bool"
        }
      ],
      "payable": false,
      "stateMutability": "nonpayable",
      "type": "function"
    },
    {
      "constant": false,
      "inputs": [],
      "name": "initialize",
      "outputs": [],
      "payable": false,
      "stateMutability": "nonpayable",
      "type": "function"
    },
    {
      "constant": false,
      "inputs": [
        {
          "internalType": "address",
          "name": "_poster",
          "type": "address"
        },
        {
          "internalType": "string",
          "name": "_postTitle",
          "type": "string"
        }
      ],
      "name": "loseStake",
      "outputs": [
        {
          "internalType": "bool",
          "name": "success",
          "type": "bool"
        }
      ],
      "payable": false,
      "stateMutability": "nonpayable",
      "type": "function"
    },
    {
      "constant": true,
      "inputs": [],
      "name": "name",
      "outputs": [
        {
          "internalType": "string",
          "name": "",
          "type": "string"
        }
      ],
      "payable": false,
      "stateMutability": "view",
      "type": "function"
    },
    {
      "constant": false,
      "inputs": [
        {
          "internalType": "uint256",
          "name": "_value",
          "type": "uint256"
        },
        {
          "internalType": "string",
          "name": "_postTitle",
          "type": "string"
        },
        {
          "internalType": "uint256",
          "name": "_upvotes",
          "type": "uint256"
        },
        {
          "internalType": "uint256",
          "name": "_comments",
          "type": "uint256"
        }
      ],
      "name": "stake",
      "outputs": [
        {
          "internalType": "bool",
          "name": "success",
          "type": "bool"
        }
      ],
      "payable": false,
      "stateMutability": "nonpayable",
      "type": "function"
    },
    {
      "constant": true,
      "inputs": [
        {
          "internalType": "address",
          "name": "",
          "type": "address"
        },
        {
          "internalType": "string",
          "name": "",
          "type": "string"
        },
        {
          "internalType": "uint256",
          "name": "",
          "type": "uint256"
        }
      ],
      "name": "stakes",
      "outputs": [
        {
          "internalType": "uint256",
          "name": "",
          "type": "uint256"
        }
      ],
      "payable": false,
      "stateMutability": "view",
      "type": "function"
    },
    {
      "constant": true,
      "inputs": [],
      "name": "standard",
      "outputs": [
        {
          "internalType": "string",
          "name": "",
          "type": "string"
        }
      ],
      "payable": false,
      "stateMutability": "view",
      "type": "function"
    },
    {
      "constant": true,
      "inputs": [],
      "name": "symbol",
      "outputs": [
        {
          "internalType": "string",
          "name": "",
          "type": "string"
        }
      ],
      "payable": false,
      "stateMutability": "view",
      "type": "function"
    },
    {
      "constant": true,
      "inputs": [],
      "name": "totalPosts",
      "outputs": [
        {
          "internalType": "uint256",
          "name": "",
          "type": "uint256"
        }
      ],
      "payable": false,
      "stateMutability": "view",
      "type": "function"
    },
    {
      "constant": true,
      "inputs": [],
      "name": "totalSupply",
      "outputs": [
        {
          "internalType": "uint256",
          "name": "",
          "type": "uint256"
        }
      ],
      "payable": false,
      "stateMutability": "view",
      "type": "function"
    },
    {
      "constant": true,
      "inputs": [],
      "name": "totalUpvotes",
      "outputs": [
        {
          "internalType": "uint256",
          "name": "",
          "type": "uint256"
        }
      ],
      "payable": false,
      "stateMutability": "view",
      "type": "function"
    },
    {
      "constant": false,
      "inputs": [
        {
          "internalType": "address",
          "name": "_to",
          "type": "address"
        },
        {
          "internalType": "uint256",
          "name": "_value",
          "type": "uint256"
        }
      ],
      "name": "transfer",
      "outputs": [
        {
          "internalType": "bool",
          "name": "success",
          "type": "bool"
        }
      ],
      "payable": false,
      "stateMutability": "nonpayable",
      "type": "function"
    },
    {
      "constant": false,
      "inputs": [
        {
          "internalType": "address",
          "name": "_from",
          "type": "address"
        },
        {
          "internalType": "address",
          "name": "_to",
          "type": "address"
        },
        {
          "internalType": "uint256",
          "name": "_value",
          "type": "uint256"
        }
      ],
      "name": "transferFrom",
      "outputs": [
        {
          "internalType": "bool",
          "name": "success",
          "type": "bool"
        }
      ],
      "payable": false,
      "stateMutability": "nonpayable",
      "type": "function"
    },
    {
      "constant": false,
      "inputs": [
        {
          "internalType": "address",
          "name": "_poster",
          "type": "address"
        },
        {
          "internalType": "string",
          "name": "_postTitle",
          "type": "string"
        }
      ],
      "name": "updateStake",
      "outputs": [
        {
          "internalType": "bool",
          "name": "success",
          "type": "bool"
        }
      ],
      "payable": false,
      "stateMutability": "nonpayable",
      "type": "function"
    },
    {
      "constant": false,
      "inputs": [
        {
          "internalType": "address",
          "name": "_poster",
          "type": "address"
        },
        {
          "internalType": "string",
          "name": "_postTitle",
          "type": "string"
        }
      ],
      "name": "upvote",
      "outputs": [
        {
          "internalType": "bool",
          "name": "success",
          "type": "bool"
        }
      ],
      "payable": false,
      "stateMutability": "nonpayable",
      "type": "function"
    }
  ],
  "bytecode": "0x608060405234801561001057600080fd5b50611f85806100206000396000f3fe608060405234801561001057600080fd5b50600436106101165760003560e01c806370a08231116100a25780638e53fb41116100715780638e53fb411461086e57806395d89b411461088c578063a9059cbb1461090f578063dd62ed3e14610975578063fc822dbe146109ed57610116565b806370a08231146106265780637ea58c8e1461067e5780638129fc1c1461077157806384ef15c01461077b57610116565b80632030a822116100e95780632030a8221461031557806323b872dd146103335780633621c3d7146103b95780633a775319146104b25780635a3b7e42146105a357610116565b806306fdde031461011b578063095ea7b31461019e57806317bdbf821461020457806318160ddd146102f7575b600080fd5b610123610ae0565b6040518080602001828103825283818151815260200191508051906020019080838360005b83811015610163578082015181840152602081019050610148565b50505050905090810190601f1680156101905780820380516001836020036101000a031916815260200191505b509250505060405180910390f35b6101ea600480360360408110156101b457600080fd5b81019080803573ffffffffffffffffffffffffffffffffffffffff16906020019092919080359060200190929190505050610b7e565b604051808215151515815260200191505060405180910390f35b6102dd6004803603604081101561021a57600080fd5b81019080803573ffffffffffffffffffffffffffffffffffffffff1690602001909291908035906020019064010000000081111561025757600080fd5b82018360208201111561026957600080fd5b8035906020019184600183028401116401000000008311171561028b57600080fd5b91908080601f016020809104026020016040519081016040528093929190818152602001838380828437600081840152601f19601f820116905080830192505050505050509192919290505050610cbc565b604051808215151515815260200191505060405180910390f35b6102ff610d93565b6040518082815260200191505060405180910390f35b61031d610d99565b6040518082815260200191505060405180910390f35b61039f6004803603606081101561034957600080fd5b81019080803573ffffffffffffffffffffffffffffffffffffffff169060200190929190803573ffffffffffffffffffffffffffffffffffffffff16906020019092919080359060200190929190505050610d9f565b604051808215151515815260200191505060405180910390f35b61049c600480360360608110156103cf57600080fd5b81019080803573ffffffffffffffffffffffffffffffffffffffff1690602001909291908035906020019064010000000081111561040c57600080fd5b82018360208201111561041e57600080fd5b8035906020019184600183028401116401000000008311171561044057600080fd5b91908080601f016020809104026020016040519081016040528093929190818152602001838380828437600081840152601f19601f8201169050808301925050505050505091929192908035906020019092919050505061100a565b6040518082815260200191505060405180910390f35b610589600480360360808110156104c857600080fd5b8101908080359060200190929190803590602001906401000000008111156104ef57600080fd5b82018360208201111561050157600080fd5b8035906020019184600183028401116401000000008311171561052357600080fd5b91908080601f016020809104026020016040519081016040528093929190818152602001838380828437600081840152601f19601f820116905080830192505050505050509192919290803590602001909291908035906020019092919050505061105b565b604051808215151515815260200191505060405180910390f35b6105ab6112fa565b6040518080602001828103825283818151815260200191508051906020019080838360005b838110156105eb5780820151818401526020810190506105d0565b50505050905090810190601f1680156106185780820380516001836020036101000a031916815260200191505b509250505060405180910390f35b6106686004803603602081101561063c57600080fd5b81019080803573ffffffffffffffffffffffffffffffffffffffff169060200190929190505050611398565b6040518082815260200191505060405180910390f35b6107576004803603604081101561069457600080fd5b81019080803573ffffffffffffffffffffffffffffffffffffffff169060200190929190803590602001906401000000008111156106d157600080fd5b8201836020820111156106e357600080fd5b8035906020019184600183028401116401000000008311171561070557600080fd5b91908080601f016020809104026020016040519081016040528093929190818152602001838380828437600081840152601f19601f8201169050808301925050505050505091929192905050506113b0565b604051808215151515815260200191505060405180910390f35b6107796116e5565b005b6108546004803603604081101561079157600080fd5b81019080803573ffffffffffffffffffffffffffffffffffffffff169060200190929190803590602001906401000000008111156107ce57600080fd5b8201836020820111156107e057600080fd5b8035906020019184600183028401116401000000008311171561080257600080fd5b91908080601f016020809104026020016040519081016040528093929190818152602001838380828437600081840152601f19601f820116905080830192505050505050509192919290505050611891565b604051808215151515815260200191505060405180910390f35b610876611b34565b6040518082815260200191505060405180910390f35b610894611b3a565b6040518080602001828103825283818151815260200191508051906020019080838360005b838110156108d45780820151818401526020810190506108b9565b50505050905090810190601f1680156109015780820380516001836020036101000a031916815260200191505b509250505060405180910390f35b61095b6004803603604081101561092557600080fd5b81019080803573ffffffffffffffffffffffffffffffffffffffff16906020019092919080359060200190929190505050611bd8565b604051808215151515815260200191505060405180910390f35b6109d76004803603604081101561098b57600080fd5b81019080803573ffffffffffffffffffffffffffffffffffffffff169060200190929190803573ffffffffffffffffffffffffffffffffffffffff169060200190929190505050611d2f565b6040518082815260200191505060405180910390f35b610ac660048036036040811015610a0357600080fd5b81019080803573ffffffffffffffffffffffffffffffffffffffff16906020019092919080359060200190640100000000811115610a4057600080fd5b820183602082011115610a5257600080fd5b80359060200191846001830284011164010000000083111715610a7457600080fd5b91908080601f016020809104026020016040519081016040528093929190818152602001838380828437600081840152601f19601f820116905080830192505050505050509192919290505050611d54565b604051808215151515815260200191505060405180910390f35b60018054600181600116156101000203166002900480601f016020809104026020016040519081016040528092919081815260200182805460018160011615610100020316600290048015610b765780601f10610b4b57610100808354040283529160200191610b76565b820191906000526020600020905b815481529060010190602001808311610b5957829003601f168201915b505050505081565b600081600760003373ffffffffffffffffffffffffffffffffffffffff1673ffffffffffffffffffffffffffffffffffffffff168152602001908152602001600020541015610bcc57600080fd5b81600860003373ffffffffffffffffffffffffffffffffffffffff1673ffffffffffffffffffffffffffffffffffffffff16815260200190815260200160002060008573ffffffffffffffffffffffffffffffffffffffff1673ffffffffffffffffffffffffffffffffffffffff168152602001908152602001600020819055508273ffffffffffffffffffffffffffffffffffffffff163373ffffffffffffffffffffffffffffffffffffffff167f8c5be1e5ebec7d5bd14f71427d1e84f3dd0314c0f7b2291e5b200ac8c7c3b925846040518082815260200191505060405180910390a36001905092915050565b60006001600960008573ffffffffffffffffffffffffffffffffffffffff1673ffffffffffffffffffffffffffffffffffffffff168152602001908152602001600020836040518082805190602001908083835b60208310610d335780518252602082019150602081019050602083039250610d10565b6001836020036101000a0380198251168184511680821785525050505050509050019150509081526020016040518091039020600281548110610d7257fe5b90600052602060002001600082825401925050819055506001905092915050565b60045481565b60055481565b600081600760008673ffffffffffffffffffffffffffffffffffffffff1673ffffffffffffffffffffffffffffffffffffffff168152602001908152602001600020541015610ded57600080fd5b81600860008673ffffffffffffffffffffffffffffffffffffffff1673ffffffffffffffffffffffffffffffffffffffff16815260200190815260200160002060003373ffffffffffffffffffffffffffffffffffffffff1673ffffffffffffffffffffffffffffffffffffffff168152602001908152602001600020541015610e7657600080fd5b81600760008673ffffffffffffffffffffffffffffffffffffffff1673ffffffffffffffffffffffffffffffffffffffff1681526020019081526020016000206000828254039250508190555081600760008573ffffffffffffffffffffffffffffffffffffffff1673ffffffffffffffffffffffffffffffffffffffff1681526020019081526020016000206000828254019250508190555081600860008673ffffffffffffffffffffffffffffffffffffffff1673ffffffffffffffffffffffffffffffffffffffff16815260200190815260200160002060003373ffffffffffffffffffffffffffffffffffffffff1673ffffffffffffffffffffffffffffffffffffffff168152602001908152602001600020600082825403925050819055508273ffffffffffffffffffffffffffffffffffffffff168473ffffffffffffffffffffffffffffffffffffffff167fddf252ad1be2c89b69c2b068fc378daa952ba7f163c4a11628f55a4df523b3ef846040518082815260200191505060405180910390a3600190509392505050565b600960205282600052604060002082805160208101820180518482526020830160208501208183528095505050505050818154811061104557fe5b9060005260206000200160009250925050505481565b600084600760003373ffffffffffffffffffffffffffffffffffffffff1673ffffffffffffffffffffffffffffffffffffffff1681526020019081526020016000205410156110a957600080fd5b6110b1611e3c565b604051806080016040528087815260200185815260200184815260200142815250905085600760003373ffffffffffffffffffffffffffffffffffffffff1673ffffffffffffffffffffffffffffffffffffffff1681526020019081526020016000206000828254039250508190555085600760008060009054906101000a900473ffffffffffffffffffffffffffffffffffffffff1673ffffffffffffffffffffffffffffffffffffffff1673ffffffffffffffffffffffffffffffffffffffff1681526020019081526020016000206000828254019250508190555080600960003373ffffffffffffffffffffffffffffffffffffffff1673ffffffffffffffffffffffffffffffffffffffff168152602001908152602001600020866040518082805190602001908083835b6020831061120357805182526020820191506020810190506020830392506111e0565b6001836020036101000a0380198251168184511680821785525050505050509050019150509081526020016040518091039020906004611244929190611e5e565b506000809054906101000a900473ffffffffffffffffffffffffffffffffffffffff1673ffffffffffffffffffffffffffffffffffffffff163373ffffffffffffffffffffffffffffffffffffffff167fddf252ad1be2c89b69c2b068fc378daa952ba7f163c4a11628f55a4df523b3ef886040518082815260200191505060405180910390a3600160066000828254019250508190555060016005600082825401925050819055506001915050949350505050565b60038054600181600116156101000203166002900480601f0160208091040260200160405190810160405280929190818152602001828054600181600116156101000203166002900480156113905780601f1061136557610100808354040283529160200191611390565b820191906000526020600020905b81548152906001019060200180831161137357829003601f168201915b505050505081565b60076020528060005260406000206000915090505481565b600080600654600554816113c057fe5b04905080600960008673ffffffffffffffffffffffffffffffffffffffff1673ffffffffffffffffffffffffffffffffffffffff168152602001908152602001600020846040518082805190602001908083835b602083106114375780518252602082019150602081019050602083039250611414565b6001836020036101000a038019825116818451168082178552505050505050905001915050908152602001604051809103902060018154811061147657fe5b9060005260206000200154101561148c57600080fd5b6004600960008673ffffffffffffffffffffffffffffffffffffffff1673ffffffffffffffffffffffffffffffffffffffff168152602001908152602001600020846040518082805190602001908083835b6020831061150157805182526020820191506020810190506020830392506114de565b6001836020036101000a038019825116818451168082178552505050505050905001915050908152602001604051809103902060028154811061154057fe5b9060005260206000200154600102600960008773ffffffffffffffffffffffffffffffffffffffff1673ffffffffffffffffffffffffffffffffffffffff168152602001908152602001600020856040518082805190602001908083835b602083106115c1578051825260208201915060208101905060208303925061159e565b6001836020036101000a038019825116818451168082178552505050505050905001915050908152602001604051809103902060018154811061160057fe5b9060005260206000200154600302018161161657fe5b04600101600960008673ffffffffffffffffffffffffffffffffffffffff1673ffffffffffffffffffffffffffffffffffffffff168152602001908152602001600020846040518082805190602001908083835b6020831061168d578051825260208201915060208101905060208303925061166a565b6001836020036101000a03801982511681845116808217855250505050505090500191505090815260200160405180910390206000815481106116cc57fe5b9060005260206000200181905550600191505092915050565b7390f8bf6a479f320ead074411a4b0e7944ea8c9c16000806101000a81548173ffffffffffffffffffffffffffffffffffffffff021916908373ffffffffffffffffffffffffffffffffffffffff1602179055506040518060400160405280600681526020017f41676f72756d000000000000000000000000000000000000000000000000000081525060019080519060200190611784929190611eab565b506040518060400160405280600481526020017f4147524100000000000000000000000000000000000000000000000000000000815250600290805190602001906117d0929190611eab565b506040518060400160405280600d81526020017f41676f72756d2076312e302e30000000000000000000000000000000000000008152506003908051906020019061181c929190611eab565b506298968060048190555062989680600760008060009054906101000a900473ffffffffffffffffffffffffffffffffffffffff1673ffffffffffffffffffffffffffffffffffffffff1673ffffffffffffffffffffffffffffffffffffffff16815260200190815260200160002081905550565b600080600654600554816118a157fe5b04905080600960008673ffffffffffffffffffffffffffffffffffffffff1673ffffffffffffffffffffffffffffffffffffffff168152602001908152602001600020846040518082805190602001908083835b6020831061191857805182526020820191506020810190506020830392506118f5565b6001836020036101000a038019825116818451168082178552505050505050905001915050908152602001604051809103902060018154811061195757fe5b90600052602060002001541061196c57600080fd5b6000600960008673ffffffffffffffffffffffffffffffffffffffff1673ffffffffffffffffffffffffffffffffffffffff168152602001908152602001600020846040518082805190602001908083835b602083106119e157805182526020820191506020810190506020830392506119be565b6001836020036101000a0380198251168184511680821785525050505050509050019150509081526020016040518091039020600381548110611a2057fe5b90600052602060002001549050600042905060006018603c8085850381611a4357fe5b0481611a4b57fe5b0481611a5357fe5b0490506001811015611a6457600080fd5b6000600960008973ffffffffffffffffffffffffffffffffffffffff1673ffffffffffffffffffffffffffffffffffffffff168152602001908152602001600020876040518082805190602001908083835b60208310611ad95780518252602082019150602081019050602083039250611ab6565b6001836020036101000a0380198251168184511680821785525050505050509050019150509081526020016040518091039020600081548110611b1857fe5b9060005260206000200181905550600194505050505092915050565b60065481565b60028054600181600116156101000203166002900480601f016020809104026020016040519081016040528092919081815260200182805460018160011615610100020316600290048015611bd05780601f10611ba557610100808354040283529160200191611bd0565b820191906000526020600020905b815481529060010190602001808311611bb357829003601f168201915b505050505081565b600081600760003373ffffffffffffffffffffffffffffffffffffffff1673ffffffffffffffffffffffffffffffffffffffff168152602001908152602001600020541015611c2657600080fd5b81600760003373ffffffffffffffffffffffffffffffffffffffff1673ffffffffffffffffffffffffffffffffffffffff1681526020019081526020016000206000828254039250508190555081600760008573ffffffffffffffffffffffffffffffffffffffff1673ffffffffffffffffffffffffffffffffffffffff168152602001908152602001600020600082825401925050819055508273ffffffffffffffffffffffffffffffffffffffff163373ffffffffffffffffffffffffffffffffffffffff167fddf252ad1be2c89b69c2b068fc378daa952ba7f163c4a11628f55a4df523b3ef846040518082815260200191505060405180910390a36001905092915050565b6008602052816000526040600020602052806000526040600020600091509150505481565b60006001600960008573ffffffffffffffffffffffffffffffffffffffff1673ffffffffffffffffffffffffffffffffffffffff168152602001908152602001600020836040518082805190602001908083835b60208310611dcb5780518252602082019150602081019050602083039250611da8565b6001836020036101000a0380198251168184511680821785525050505050509050019150509081526020016040518091039020600181548110611e0a57fe5b906000526020600020016000828254019250508190555060016005600082825401925050819055506001905092915050565b6040518060800160405280600490602082028038833980820191505090505090565b828054828255906000526020600020908101928215611e9a579160200282015b82811115611e99578251825591602001919060010190611e7e565b5b509050611ea79190611f2b565b5090565b828054600181600116156101000203166002900490600052602060002090601f016020900481019282601f10611eec57805160ff1916838001178555611f1a565b82800160010185558215611f1a579182015b82811115611f19578251825591602001919060010190611efe565b5b509050611f279190611f2b565b5090565b611f4d91905b80821115611f49576000816000905550600101611f31565b5090565b9056fea265627a7a723158208a0f6b543149eb44c4c9ac0a7fdd88c3e05bf78de4e596f3aaf645932cbe0aeb64736f6c63430005110032",
  "compiler": {
    "name": "solc",
    "version": "0.5.17+commit.d19bba13.Emscripten.clang",
    "optimizer": {
      "enabled": false,
      "runs": 200
    },
    "evmVersion": "petersburg"
  }
}